{"address":"0xFFA9202519B5510610F27fdEE58e4aA081AA518f","bytecode":"0x608060405234801561001057600080fd5b50610363806100206000396000f3fe608060405234801561001057600080fd5b506004361061004c5760003560e01c806320965255146100515780633fa4f2451461006f578063552410771461008d578063d09de08a146100a9575b600080fd5b6100596100b3565b6040516100669190610184565b60405180910390f35b6100776100bc565b6040516100849190610184565b60405180910390f35b6100a760048036038101906100a291906101d0565b6100c2565b005b6100b161010d565b005b60008054905090565b60005481565b806000819055506040516100d590610254565b6040518091039020817f2843db081a37ea127bf312e8ed0e393d4f02799d8a1d9bfcbd477f2cb9694f5960405160405180910390a350565b600160008082825461011f9190610298565b9250508190555060405161013290610318565b60405180910390206000547f0517e63af20a9e05a6ba3be77d31b718d78f667b7aa1f7c7399b20fb91ccf55060405160405180910390a3565b6000819050919050565b61017e8161016b565b82525050565b60006020820190506101996000830184610175565b92915050565b600080fd5b6101ad8161016b565b81146101b857600080fd5b50565b6000813590506101ca816101a4565b92915050565b6000602082840312156101e6576101e561019f565b5b60006101f4848285016101bb565b91505092915050565b600081905092915050565b7f56616c7565207365740000000000000000000000000000000000000000000000600082015250565b600061023e6009836101fd565b915061024982610208565b600982019050919050565b600061025f82610231565b9150819050919050565b7f4e487b7100000000000000000000000000000000000000000000000000000000600052601160045260246000fd5b60006102a38261016b565b91506102ae8361016b565b92508282019050808211156102c6576102c5610269565b5b92915050565b7f56616c756520696e6372656d656e746564000000000000000000000000000000600082015250565b60006103026011836101fd565b915061030d826102cc565b601182019050919050565b6000610323826102f5565b915081905091905056fea2646970667358221220b716c218f7f48697590f9cc766a7e26ce889189f53d3de7786e181bbfe495e8764736f6c63430008180033","abi":[{"anonymous":false,"inputs":[{"indexed":true,"internalType":"uint256","name":"value","type":"uint256"},{"indexed":true,"internalType":"string","name":"message","type":"string"}],"name":"ValueIncrementd","type":"event"},{"anonymous":false,"inputs":[{"indexed":true,"internalType":"uint256","name":"value","type":"uint256"},{"indexed":true,"internalType":"string","name":"message","type":"string"}],"name":"ValuesSet","type":"event"},{"inputs":[],"name":"getValue","outputs":[{"internalType":"uint256","name":"","type":"uint256"}],"stateMutability":"view","type":"function"},{"inputs":[],"name":"increment","outputs":[],"stateMutability":"nonpayable","type":"function"},{"inputs":[{"internalType":"uint256","name":"_value","type":"uint256"}],"name":"setValue","outputs":[],"stateMutability":"nonpayable","type":"function"},{"inputs":[],"name":"value","outputs":[{"internalType":"uint256","name":"","type":"uint256"}],"stateMutability":"view","type":"function"}]}