{"address":"0xEfa855be27F5dC0Bbd48CB57b43F57b9F53DdD15","bytecode":"0x608060405234801561001057600080fd5b506101bb806100206000396000f3fe608060405234801561001057600080fd5b506004361061004c5760003560e01c806320965255146100515780633fa4f245146100675780635524107714610070578063d09de08a14610085575b600080fd5b6000545b60405190815260200160405180910390f35b61005560005481565b61008361007e366004610145565b61008d565b005b6100836100dc565b60008190556040516815985b1d59481cd95d60ba1b81526009016040519081900381209082907f2843db081a37ea127bf312e8ed0e393d4f02799d8a1d9bfcbd477f2cb9694f5990600090a350565b60016000808282546100ee919061015e565b90915550506040517015985b1d59481a5b98dc995b595b9d1959607a1b81526011016040519081900381206000805491927f0517e63af20a9e05a6ba3be77d31b718d78f667b7aa1f7c7399b20fb91ccf5509190a3565b60006020828403121561015757600080fd5b5035919050565b8082018082111561017f57634e487b7160e01b600052601160045260246000fd5b9291505056fea2646970667358221220e700081f235e071a0cafa5b51f40b8fc6ec1ec5e563bb4ebdb4981eb6160efb064736f6c63430008180033","abi":[{"anonymous":false,"inputs":[{"indexed":true,"internalType":"uint256","name":"value","type":"uint256"},{"indexed":true,"internalType":"string","name":"message","type":"string"}],"name":"ValueIncrementd","type":"event"},{"anonymous":false,"inputs":[{"indexed":true,"internalType":"uint256","name":"value","type":"uint256"},{"indexed":true,"internalType":"string","name":"message","type":"string"}],"name":"ValuesSet","type":"event"},{"inputs":[],"name":"getValue","outputs":[{"internalType":"uint256","name":"","type":"uint256"}],"stateMutability":"view","type":"function"},{"inputs":[],"name":"increment","outputs":[],"stateMutability":"nonpayable","type":"function"},{"inputs":[{"internalType":"uint256","name":"_value","type":"uint256"}],"name":"setValue","outputs":[],"stateMutability":"nonpayable","type":"function"},{"inputs":[],"name":"value","outputs":[{"internalType":"uint256","name":"","type":"uint256"}],"stateMutability":"view","type":"function"}]}